:100000000C942A000C9447000C9447000C94470071
:100010000C9447000C9447000C9447000C94470044
:100020000C9447000C9447000C94A0020C946402BA
:100030000C9447000C9447000C9447000C94470024
:100040000C9447000C9447000C9447000C94470014
:100050000C94470011241FBECFE5D8E0DEBFCDBF12
:1000600010E0A0E6B0E0ECEBF7E002C005900D92E6
:10007000AC36B107D9F710E0ACE6B0E001C01D9294
:10008000AD3AB107E1F70E94A3030C94DC030C9492
:100090000000982F969596959695913031F1913074
:1000A00038F0923009F440C0933009F07AC05BC058
:1000B000613069F44BB321E030E0B90102C0660F52
:1000C000771F8A95E2F7CB01842B8BBB08954BB346
:1000D00021E030E0B90102C0660F771F8A95E2F790
:1000E000CB01809584238BBB0895613071F448B3B4
:1000F000877021E030E0B90102C0660F771F8A9552
:10010000E2F7CB01842B88BB089548B3877021E0C8
:1001100030E0B90102C0660F771F8A95E2F7CB0184
:100120008095842388BB0895613071F445B387704E
:1001300021E030E0B90102C0660F771F8A95E2F72F
:10014000CB01842B85BB089545B3877021E030E057
:10015000B90102C0660F771F8A95E2F7CB0180953F
:10016000842385BB0895613071F442B3877021E028
:1001700030E0B90102C0660F771F8A95E2F7CB0124
:10018000842B82BB089542B3877021E030E0B9012F
:1001900002C0660F771F8A95E2F7CB018095842312
:1001A00082BB0895982F969596959695913091F0EB
:1001B000913028F09230D1F0933081F523C029B3EB
:1001C00030E0A90102C0559547958A95E2F7CA012A
:1001D0008170089526B330E08770A90102C055955B
:1001E00047958A95E2F7CA018170089523B330E0FC
:1001F0008770A90102C0559547958A95E2F7CA0113
:100200008170089520B330E08770A90102C0559530
:1002100047958A95E2F7CA018170089580E00895B4
:10022000813049F0813028F0823039F0833041F458
:1002300006C089B3089586B3089583B3089580B343
:100240000895813049F0813028F0823039F08330D0
:1002500041F406C06BBB089568BB089565BB089563
:1002600062BB0895982F9695969596959130F9F0E2
:10027000913030F09230A9F1933009F066C04BC054
:100280009BB341E050E09A01082E02C0220F331FB9
:100290000A94E2F729272BBB2BB330E0A90102C057
:1002A000559547958A95E2F7CA018170089568B31C
:1002B00090E08770907041E050E09A01082E02C0F3
:1002C000220F331F0A94E2F7262728BB28B330E019
:1002D000A90102C0559547958A95E2F7CA01817038
:1002E000089565B390E08770907041E050E09A0106
:1002F000082E02C0220F331F0A94E2F7262725BBDF
:1003000025B330E0A90102C0559547958A95E2F7DB
:10031000CA018170089562B390E08770907041E0E7
:1003200050E09A01082E02C0220F331F0A94E2F710
:10033000262722BB22B330E0A90102C0559547957C
:100340008A95E2F7CA018170089580E008958FB719
:1003500080688FBF08958FB78F778FBF0895CF9331
:10036000DF9321E630E0E901219641EC50E061E0C5
:1003700070E0D901F90131978081813011F181302C
:1003800030F08230C1F1833009F068C04EC08881FE
:10039000813059F4EAB3CB010C9002C0880F991F49
:1003A0000A94E2F78E2B8ABB59C0EAB3CB010C90BA
:1003B00002C0880F991F0A94E2F780958E238ABBAA
:1003C0004DC08881813059F4E7B3CB010C9002C055
:1003D000880F991F0A94E2F78E2B87BB3FC0E7B3C3
:1003E000CB010C9002C0880F991F0A94E2F7809508
:1003F0008E2387BB33C08881813059F4E4B3CB01AD
:100400000C9002C0880F991F0A94E2F78E2B84BBD0
:1004100025C0E4B3CB010C9002C0880F991F0A9449
:10042000E2F780958E2384BB19C08881813059F40E
:10043000E1B3CB010C9002C0880F991F0A94E2F738
:100440008E2B81BB0BC0E1B3CB010C9002C0880F97
:10045000991F0A94E2F780958E2381BB2D5F3F4F51
:1004600023962417350709F084CFDF91CF910895A3
:1004700083B78F7B83BF83B7886083BF89B7826070
:1004800089BF089583B7816083BF83B7826083BFCC
:1004900083B78B7F83BF089583B7887F83BF089519
:1004A00008958CBF089529EF2CBF90936D00809321
:1004B0006C00089590936F0080936E000895909360
:1004C00071008093700008951F920F920FB60F92E3
:1004D00011242F933F934F935F936F937F938F9349
:1004E0009F93AF93BF93EF93FF938091720090918E
:1004F00073000196909373008093720023E0813D16
:10050000920769F481E782BF109273001092720023
:10051000E0916E00F0916F00309709F00995FF911E
:10052000EF91BF91AF919F918F917F916F915F916B
:100530004F913F912F910F900FBE0F901F901895E4
:100540001F920F920FB60F9211242F933F934F9348
:100550005F936F937F938F939F93AF93BF93EF932B
:10056000FF938091740090917500019690937500AF
:100570008093740020916C0030916D008217930776
:1005800059F41092750010927400E0917000F0918F
:100590007100309709F00995FF91EF91BF91AF91EC
:1005A0009F918F917F916F915F914F913F912F918B
:1005B0000F900FBE0F901F901895AC010097C9F0D7
:1005C000A091AC008A2F90E09C01220F331F220FD4
:1005D000331F820F931FFC01E658FF4F5483438360
:1005E0007183608381E08283AF5FA093AC0080E081
:1005F000089581E00895AC0180917D0090917E0086
:100600008417950759F0E2E8F0E021E030E0B90105
:10061000808191818417950791F402C060E070E0B9
:10062000FB01EE0FFF1FEE0FFF1F6E0F7F1FFB0181
:10063000E658FF4F12821482138280E008952F5FE4
:100640003F4F35962A30310511F781E00895EF923A
:10065000FF920F931F93CF938091AC008823E1F119
:10066000C0E00F2EFAE7EF2EF0E0FF2EF02D8C2FDA
:1006700090E0FC01EE0FFF1FEE0FFF1FE80FF91FC8
:10068000EE0DFF1D038114810115110501F19C017F
:10069000220F331F220F331F820F931FF701E80F22
:1006A000F91F2081318140E050E060917600709127
:1006B000770080917800909179000E94BA03DC0164
:1006C000CB010097A105B10511F4F8010995CF5FA1
:1006D0008091AC00C81758F2809176009091770015
:1006E000A0917800B09179000196A11DB11D809371
:1006F000760090937700A0937800B0937900CF9123
:100700001F910F91FF90EF9008950E942703089585
:100710000E94A7010E94380281E090E00E945302EB
:1007200085E893E00E945F020E944202089586E0FD
:100730000E943201089585E00E943201089584E00C
:100740000E94320108950E94AF018FE993E064E6B0
:1007500070E00E94DD028BE993E064EF71E00E949B
:10076000DD0287E993E068EE73E00E94DD020E94FB
:100770008803FFCFA1E21A2EAA1BBB1BFD010DC0EF
:10078000AA1FBB1FEE1FFF1FA217B307E407F50741
:1007900020F0A21BB30BE40BF50B661F771F881F1D
:1007A000991F1A9469F760957095809590959B01B3
:0C07B000AC01BD01CF010895F894FFCF0B
:0C07BC00000401000501000601FFFFFF22
:00000001FF
