:100000000C942A000C9447000C9447000C94470071
:100010000C9447000C9447000C9447000C94470044
:100020000C9447000C9447000C94A0020C946402BA
:100030000C9447000C9447000C9447000C94470024
:100040000C9447000C9447000C9447000C94470014
:100050000C94470011241FBECFE5D8E0DEBFCDBF12
:1000600010E0A0E6B0E0E4E0F9E002C005900D92F7
:10007000AC36B107D9F711E0ACE6B0E001C01D9293
:10008000AD34B107E1F70E945C040C9480040C9439
:100090000000982F969596959695913031F1913074
:1000A00038F0923009F440C0933009F07AC05BC058
:1000B000613069F44BB321E030E0B90102C0660F52
:1000C000771F8A95E2F7CB01842B8BBB08954BB346
:1000D00021E030E0B90102C0660F771F8A95E2F790
:1000E000CB01809584238BBB0895613071F448B3B4
:1000F000877021E030E0B90102C0660F771F8A9552
:10010000E2F7CB01842B88BB089548B3877021E0C8
:1001100030E0B90102C0660F771F8A95E2F7CB0184
:100120008095842388BB0895613071F445B387704E
:1001300021E030E0B90102C0660F771F8A95E2F72F
:10014000CB01842B85BB089545B3877021E030E057
:10015000B90102C0660F771F8A95E2F7CB0180953F
:10016000842385BB0895613071F442B3877021E028
:1001700030E0B90102C0660F771F8A95E2F7CB0124
:10018000842B82BB089542B3877021E030E0B9012F
:1001900002C0660F771F8A95E2F7CB018095842312
:1001A00082BB0895982F969596959695913091F0EB
:1001B000913028F09230D1F0933081F523C029B3EB
:1001C00030E0A90102C0559547958A95E2F7CA012A
:1001D0008170089526B330E08770A90102C055955B
:1001E00047958A95E2F7CA018170089523B330E0FC
:1001F0008770A90102C0559547958A95E2F7CA0113
:100200008170089520B330E08770A90102C0559530
:1002100047958A95E2F7CA018170089580E00895B4
:10022000813049F0813028F0823039F0833041F458
:1002300006C089B3089586B3089583B3089580B343
:100240000895813049F0813028F0823039F08330D0
:1002500041F406C06BBB089568BB089565BB089563
:1002600062BB0895982F9695969596959130F9F0E2
:10027000913030F09230A9F1933009F066C04BC054
:100280009BB341E050E09A01082E02C0220F331FB9
:100290000A94E2F729272BBB2BB330E0A90102C057
:1002A000559547958A95E2F7CA018170089568B31C
:1002B00090E08770907041E050E09A01082E02C0F3
:1002C000220F331F0A94E2F7262728BB28B330E019
:1002D000A90102C0559547958A95E2F7CA01817038
:1002E000089565B390E08770907041E050E09A0106
:1002F000082E02C0220F331F0A94E2F7262725BBDF
:1003000025B330E0A90102C0559547958A95E2F7DB
:10031000CA018170089562B390E08770907041E0E7
:1003200050E09A01082E02C0220F331F0A94E2F710
:10033000262722BB22B330E0A90102C0559547957C
:100340008A95E2F7CA018170089580E008958FB719
:1003500080688FBF08958FB78F778FBF0895CF9331
:10036000DF9321E630E0E901219641EC50E061E0C5
:1003700070E0D901F90131978081813011F181302C
:1003800030F08230C1F1833009F068C04EC08881FE
:10039000813059F4EAB3CB010C9002C0880F991F49
:1003A0000A94E2F78E2B8ABB59C0EAB3CB010C90BA
:1003B00002C0880F991F0A94E2F780958E238ABBAA
:1003C0004DC08881813059F4E7B3CB010C9002C055
:1003D000880F991F0A94E2F78E2B87BB3FC0E7B3C3
:1003E000CB010C9002C0880F991F0A94E2F7809508
:1003F0008E2387BB33C08881813059F4E4B3CB01AD
:100400000C9002C0880F991F0A94E2F78E2B84BBD0
:1004100025C0E4B3CB010C9002C0880F991F0A9449
:10042000E2F780958E2384BB19C08881813059F40E
:10043000E1B3CB010C9002C0880F991F0A94E2F738
:100440008E2B81BB0BC0E1B3CB010C9002C0880F97
:10045000991F0A94E2F780958E2381BB2D5F3F4F51
:1004600023962417350709F084CFDF91CF910895A3
:1004700083B78F7B83BF83B7886083BF89B7826070
:1004800089BF089583B7816083BF83B7826083BFCC
:1004900083B78B7F83BF089583B7887F83BF089519
:1004A00008958CBF089529EF2CBF90936D00809321
:1004B0006C00089590936F0080936E000895909360
:1004C00071008093700008951F920F920FB60F92E3
:1004D00011242F933F934F935F936F937F938F9349
:1004E0009F93AF93BF93EF93FF938091720090918E
:1004F00073000196909373008093720023E0813D16
:10050000920769F481E782BF109273001092720023
:10051000E0916E00F0916F00309709F00995FF911E
:10052000EF91BF91AF919F918F917F916F915F916B
:100530004F913F912F910F900FBE0F901F901895E4
:100540001F920F920FB60F9211242F933F934F9348
:100550005F936F937F938F939F93AF93BF93EF932B
:10056000FF938091740090917500019690937500AF
:100570008093740020916C0030916D008217930776
:1005800059F41092750010927400E0917000F0918F
:100590007100309709F00995FF91EF91BF91AF91EC
:1005A0009F918F917F916F915F914F913F912F918B
:1005B0000F900FBE0F901F9018950F931F93CF931E
:1005C000DF93DC01EA01890170E0CB01880F991FFC
:1005D000860F971FFC01EE0FFF1FEE0FFF1FEE0FA0
:1005E000FF1FE81BF90BE158FF4F20E030E0A901A5
:1005F00080819181009751F5109741F1C901880FD1
:10060000991F880F991F880F991F9C01241B350B78
:10061000A901CB01880F991F860F971F9C01220FFC
:10062000331F220F331F220F331F281B390B240FB8
:10063000351FF901E658FF4FB683A583D183C083E8
:100640001383028381E0848380E007C02F5F3F4FE4
:1006500037962330310559F681E0DF91CF911F9114
:100660000F910895AC01EFE7F0E020E030E02FC0FB
:1006700021E030E005C022E030E002C020E030E0C0
:10068000C901880F991F880F991F880F991F821B16
:10069000930B9B01220F331F620F731FFB01EE0FA1
:1006A000FF1FEE0FFF1FEE0FFF1FE61BF70B8E0F56
:1006B0009F1FFC01E658FF4F16821582148280E0CE
:1006C00008952F5F3F4F75962A30310589F0B901A3
:1006D000808191818417950789F28781908584179D
:1006E000950731F2868597858417950751F7C3CF13
:1006F00081E00895BF92CF92DF92EF92FF920F9325
:100700001F93CF93DF93EE24FF240F2EFAE7CF2E13
:10071000F0E0DF2EF02DBB2401C0FB2C0E2D10E0ED
:10072000CF2DD0E0AE01440F551F440F551F440F8D
:10073000551F4C1B5D0BC801880F991F800F911F1F
:100740009C01220F331F220F331F220F331F281B40
:10075000390B240F351FF601E20FF31F65817681F7
:100760006115710509F460C0FA01C801880F991F6D
:10077000800F911F9C01220F331F220F331F220F66
:10078000331FA901481B590BCA018E0F9F1FF60189
:10079000E80FF91F428153814115510521F5FB01F5
:1007A0000995CE01880F991F880F991F880F991FEF
:1007B000FC01EC1BFD0BC801880F991F080F191FC6
:1007C000C801880F991F880F991F880F991F801BD8
:1007D000910BE80FF91FEC0DFD1D808191810197B0
:1007E0009383828326C09E01220F331F220F331F63
:1007F000220F331FB9016C1B7D0BC801880F991F95
:10080000800F911F9C01220F331F220F331F220FD5
:10081000331F281B390B260F371FF601E20FF31F7A
:100820004150504053834283F39452E05F1508F0E7
:1008300075CF83E0F81629F4E39449E04E1508F0EB
:100840006CCF8091760090917700A0917800B09164
:1008500079000196A11DB11D8093760090937700D9
:10086000A0937800B0937900DF91CF911F910F9101
:10087000FF90EF90DF90CF90BF9008950E947A0391
:1008800008950E94A7010E94380281E090E00E9432
:1008900053028EE394E00E945F020E944202089598
:1008A00086E00E943201089585E00E943201089599
:1008B00084E00E94320108950E94AF0184E061E06B
:1008C0000E94490088E594E061E044EF51E020E0B7
:1008D00030E00E94DD0284E594E061E048EE53E000
:1008E00028EE33E00E94DD0280E594E061E044E61A
:1008F00050E020ED37E00E94DD020E944104FFCF6E
:04090000F894FFCF99
:0C090400000401000501000601FFFFFFD8
:00000001FF
