:100000000C942A000C9447000C9447000C94470071
:100010000C9447000C9447000C9447000C94470044
:100020000C9447000C9447000C94E7030C94AB032A
:100030000C9447000C9447000C9447000C94470024
:100040000C9447000C9447000C9447000C94470014
:100050000C94470011241FBECFE5D8E0DEBFCDBF12
:1000600010E0A0E6B0E0EAEEFBE002C005900D92E1
:10007000A23AB107D9F711E0A2EAB0E001C01D929F
:10008000AE38B107E1F70E94B5050C94F3050C9466
:10009000000082E061E00E9490018FE39FE1019700
:1000A000F1F700C0000082E060E00E9490018FE361
:1000B0009FE10197F1F700C000000895CF93C82F8A
:1000C000682F62956F70617088E00E9490016C2FBC
:1000D000629566956770617089E00E9490016C2F4F
:1000E000629566956695637061708AE00E949001E2
:1000F0006C2F661F6627661F8CE00E94900183E0CC
:1001000060E00E9490010E9449006C2F617088E0BD
:100110000E9490016C2F6695617089E00E949001A9
:100120006C2F6695669561708AE00E949001C69575
:10013000C695C6956C2F61708CE00E94900183E09B
:1001400060E00E9490010E944900CF9108958FEFD6
:1001500092E5A7E081509040A040E1F700C0000088
:1001600082E00E945E00AFE3BCE91197F1F700C0A6
:10017000000088E20E945E008FE99FE00197F1F79E
:1001800000C000008EE00E945E00AFE9BFE0119762
:10019000F1F700C0000081E00E945E008FE39CE95F
:1001A0000197F1F700C0000086E00E945E00AFE911
:1001B000BFE01197F1F700C000000895CF93C82F5A
:1001C000682F62956F70617088E00E9490016C2FBB
:1001D000629566956770617089E00E9490016C2F4E
:1001E000629566956695637061708AE00E949001E1
:1001F0006C2F661F6627661F8CE00E94900183E0CB
:1002000061E00E9490010E9449006C2F617088E0BB
:100210000E9490016C2F6695617089E00E949001A8
:100220006C2F6695669561708AE00E949001C69574
:10023000C695C6956C2F61708CE00E94900183E09A
:1002400061E00E9490010E944900CF910895CF93F0
:10025000DF93EC018881882331F021960E94DE0033
:1002600089918823D9F7DF91CF910895CF93DF93B8
:10027000EA01813011F0853018F0862F81580CC0CA
:10028000823019F4862F815407C0833019F4862FE9
:100290008D5602C0862F8D520E945E00CE010E94B4
:1002A0002701DF91CF9108951F93CF93DF93CDB7AF
:1002B000DEB72A970FB6F894DEBF0FBECDBF00970A
:1002C00021F480E30E94DE0021C010E02AE030E04B
:1002D000E1E0F0E0EC0FFD1FE10FF11DB9010E941C
:1002E000DF058083862F972F1F5F009789F71123E3
:1002F00069F01150E1E0F0E0EC0FFD1FE10FF11D9E
:100300008081805D0E94DE00112399F72A960FB646
:10031000F894DEBF0FBECDBFDF91CF911F9108953E
:10032000982F969596959695913031F1913038F0B9
:10033000923009F440C0933009F07AC05BC061305C
:1003400069F44BB321E030E0B90102C0660F771FBA
:100350008A95E2F7CB01842B8BBB08954BB321E048
:1003600030E0B90102C0660F771F8A95E2F7CB0132
:10037000809584238BBB0895613071F448B38770F6
:1003800021E030E0B90102C0660F771F8A95E2F7DD
:10039000CB01842B88BB089548B3877021E030E0FF
:1003A000B90102C0660F771F8A95E2F7CB018095ED
:1003B000842388BB0895613071F445B3877021E0D0
:1003C00030E0B90102C0660F771F8A95E2F7CB01D2
:1003D000842B85BB089545B3877021E030E0B901D7
:1003E00002C0660F771F8A95E2F7CB0180958423C0
:1003F00085BB0895613071F442B3877021E030E02D
:10040000B90102C0660F771F8A95E2F7CB01842BF2
:1004100082BB089542B3877021E030E0B90102C089
:10042000660F771F8A95E2F7CB018095842382BB04
:100430000895982F969596959695913091F09130D4
:1004400028F09230D1F0933081F523C029B330E009
:10045000A90102C0559547958A95E2F7CA018170B6
:10046000089526B330E08770A90102C055954795DD
:100470008A95E2F7CA018170089523B330E087704E
:10048000A90102C0559547958A95E2F7CA01817086
:10049000089520B330E08770A90102C055954795B3
:1004A0008A95E2F7CA018170089580E0089581304D
:1004B00049F0813028F0823039F0833041F406C0B1
:1004C00089B3089586B3089583B3089580B30895DA
:1004D000813049F0813028F0823039F0833041F4A6
:1004E00006C06BBB089568BB089565BB089562BBE9
:1004F0000895982F9695969596959130F9F09130AC
:1005000030F09230A9F1933009F066C04BC09BB334
:1005100041E050E09A01082E02C0220F331F0A94D6
:10052000E2F729272BBB2BB330E0A90102C0559578
:1005300047958A95E2F7CA018170089568B390E003
:100540008770907041E050E09A01082E02C0220F9F
:10055000331F0A94E2F7262728BB28B330E0A9010D
:1005600002C0559547958A95E2F7CA0181700895B2
:1005700065B390E08770907041E050E09A01082EDA
:1005800002C0220F331F0A94E2F7262725BB25B3AA
:1005900030E0A90102C0559547958A95E2F7CA0156
:1005A0008170089562B390E08770907041E050E0F0
:1005B0009A01082E02C0220F331F0A94E2F7262761
:1005C00022BB22B330E0A90102C0559547958A9518
:1005D000E2F7CA018170089580E008958FB78068BE
:1005E0008FBF08958FB78F778FBF0895CF93DF9315
:1005F00021E630E0E901219641EC50E061E070E055
:10060000D901F90131978081813011F1813030F0C9
:100610008230C1F1833009F068C04EC088818130DA
:1006200059F4EAB3CB010C9002C0880F991F0A94C9
:10063000E2F78E2B8ABB59C0EAB3CB010C9002C003
:10064000880F991F0A94E2F780958E238ABB4DC0CC
:100650008881813059F4E7B3CB010C9002C0880F38
:10066000991F0A94E2F78E2B87BB3FC0E7B3CB01FB
:100670000C9002C0880F991F0A94E2F780958E2390
:1006800087BB33C08881813059F4E4B3CB010C902F
:1006900002C0880F991F0A94E2F78E2B84BB25C0F5
:1006A000E4B3CB010C9002C0880F991F0A94E2F7C3
:1006B00080958E2384BB19C08881813059F4E1B3C1
:1006C000CB010C9002C0880F991F0A94E2F78E2B81
:1006D00081BB0BC0E1B3CB010C9002C0880F991F06
:1006E0000A94E2F780958E2381BB2D5F3F4F2396BE
:1006F0002417350709F084CFDF91CF91089583B790
:100700008F7B83BF83B7886083BF89B7826089BFCF
:10071000089583B7816083BF83B7826083BF83B747
:100720008B7F83BF089583B7887F83BF0895089523
:100730008CBF089529EF2CBF9093A3008093A20053
:1007400008959093A5008093A40008959093A70026
:100750008093A60008951F920F920FB60F92112456
:100760002F933F934F935F936F937F938F939F93B9
:10077000AF93BF93EF93FF938091A8009091A9004E
:1007800001969093A9008093A80023E0813D9207F1
:1007900069F481E782BF1092A9001092A800E0914D
:1007A000A400F091A500309709F00995FF91EF9111
:1007B000BF91AF919F918F917F916F915F914F9179
:1007C0003F912F910F900FBE0F901F9018951F9281
:1007D0000F920FB60F9211242F933F934F935F9375
:1007E0006F937F938F939F93AF93BF93EF93FF93F9
:1007F0008091AA009091AB0001969093AB008093FA
:10080000AA002091A2003091A3008217930759F407
:100810001092AB001092AA00E091A600F091A70000
:10082000309709F00995FF91EF91BF91AF919F919A
:100830008F917F916F915F914F913F912F910F9089
:100840000FBE0F901F9018950F931F93CF93DF93B8
:10085000DC01EA01890170E0CB01880F991F860F46
:10086000971FFC01EE0FFF1FEE0FFF1FEE0FFF1F84
:10087000E81BF90BE454FF4F20E030E0A901808130
:100880009181009751F5109741F1C901880F991F87
:10089000880F991F880F991F9C01241B350BA901F4
:1008A000CB01880F991F860F971F9C01220F331FC2
:1008B000220F331F220F331F281B390B240F351F24
:1008C000F901E954FF4FB683A583D183C083138315
:1008D000028381E0848380E007C02F5F3F4F37961B
:1008E0002330310559F681E0DF91CF911F910F91AF
:1008F0000895AC01ECEBF0E020E030E02FC021E007
:1009000030E005C022E030E002C020E030E0C90164
:10091000880F991F880F991F880F991F821B930BAF
:100920009B01220F331F620F731FFB01EE0FFF1F8E
:10093000EE0FFF1FEE0FFF1FE61BF70B8E0F9F1F23
:10094000FC01E954FF4F16821582148280E008955D
:100950002F5F3F4F75962A30310589F0B9018081AC
:1009600091818417950789F287819085841795076F
:1009700031F2868597858417950751F7C3CF81E0BB
:1009800008959F92AF92BF92CF92DF92EF92FF9223
:100990000F931F93CF93DF930F2EF1EBAF2EF0E069
:1009A000BF2EF02DCC24DD240F2EF3E09F2EF02D52
:1009B00035C0ED81FE81309791F08A819B8100974F
:1009C00059F480917F008F3F51F409958881998176
:1009D00001979B838A8303C001979B838A8311506D
:1009E0002796112331F78091AC00081760F4D501E8
:1009F000ED91FC91119782819381181619061CF4D0
:100A00000197938382830894C11CD11CE2E0F0E03B
:100A1000AE0EBF1EFAE0CF16D10499F00C2DC60120
:100A2000880F991F8C0D9D1DEC01CC0FDD1FCC0F85
:100A3000DD1FCC0FDD1FC81BD90BC954DF4F192D8B
:100A4000B8CF8091AD009091AE00A091AF00B09171
:100A5000B0000196A11DB11D8093AD009093AE0032
:100A6000A093AF00B093B000DF91CF911F910F9191
:100A7000FF90EF90DF90CF90BF90AF909F90089540
:100A80000E94C10408950E94EE020E947F0381E04B
:100A900090E00E949A0380E495E00E94A6030E94E1
:100AA000890380917E000895FC0181E0808382E0CB
:100AB0008183138212828091AC00A82FB0E0AA0F2C
:100AC000BB1FAF54BF4F1196FC93EE938F5F809383
:100AD000AC000895FC01862F972F9383828318160C
:100AE000190654F48181823009F0FFCF81E08183BF
:100AF0001382128280E0089581E0089522E0FC01D3
:100B000021830895FC0182E0808381831382128215
:100B1000089586E00E947902089585E00E94790296
:100B200082E061E040E850E00E9436018AE891E00E
:100B30000E947E050895CF93DF9381E00E945E00BE
:100B400081E061E04FE850E00E943601CAE8D1E060
:100B5000CE0164E670E00E946A058130C9F384E04A
:100B60000E947902DF91CF9108950E94F60284E0FD
:100B700061E00E9490010E94A7008BE995E060E08F
:100B800040ED57E020E030E00E9424048DE895E03D
:100B900061E048EE53E024EF31E00E94240489E84C
:100BA00095E062E044E650E020ED37E00E94240446
:100BB0008AE891E00E9454050E944305FFCFAA1BDA
:100BC000BB1B51E107C0AA1FBB1FA617B70710F038
:100BD000A61BB70B881F991F5A95A9F7809590956A
:0A0BE000BC01CD010895F894FFCF89
:100BEA0000040100050100060100020100030101E1
:100BFA000001010101010201010401FFFFFF01FFE0
:100C0A00476976652053656D6170686F726500414A
:100C1A00736B20466F722053656D6170686F7265E1
:020C2A000000C8
:00000001FF
